{
  "contractName": "Transfers",
  "abi": [
    {
      "constant": true,
      "inputs": [
        {
          "name": "",
          "type": "address"
        }
      ],
      "name": "balance",
      "outputs": [
        {
          "name": "",
          "type": "uint256"
        }
      ],
      "payable": false,
      "stateMutability": "view",
      "type": "function"
    },
    {
      "inputs": [],
      "payable": false,
      "stateMutability": "nonpayable",
      "type": "constructor"
    },
    {
      "constant": false,
      "inputs": [
        {
          "name": "_addr",
          "type": "address"
        },
        {
          "name": "_value",
          "type": "uint256"
        }
      ],
      "name": "transfer",
      "outputs": [],
      "payable": false,
      "stateMutability": "nonpayable",
      "type": "function"
    },
    {
      "constant": false,
      "inputs": [],
      "name": "myBalance",
      "outputs": [
        {
          "name": "",
          "type": "uint256"
        }
      ],
      "payable": false,
      "stateMutability": "nonpayable",
      "type": "function"
    },
    {
      "constant": false,
      "inputs": [],
      "name": "deposit",
      "outputs": [
        {
          "name": "",
          "type": "uint256"
        }
      ],
      "payable": true,
      "stateMutability": "payable",
      "type": "function"
    },
    {
      "constant": false,
      "inputs": [
        {
          "name": "_addr",
          "type": "address"
        },
        {
          "name": "_value",
          "type": "uint256"
        }
      ],
      "name": "withdraw",
      "outputs": [],
      "payable": false,
      "stateMutability": "nonpayable",
      "type": "function"
    },
    {
      "constant": false,
      "inputs": [
        {
          "name": "_addrs",
          "type": "address[]"
        },
        {
          "name": "_value",
          "type": "uint256"
        }
      ],
      "name": "withdrawMulti",
      "outputs": [],
      "payable": false,
      "stateMutability": "nonpayable",
      "type": "function"
    }
  ],
  "bytecode": "0x608060405234801561001057600080fd5b506100196100de565b604051809103906000f080158015610035573d6000803e3d6000fd5b50600160006101000a81548173ffffffffffffffffffffffffffffffffffffffff021916908373ffffffffffffffffffffffffffffffffffffffff160217905550600160009054906101000a900473ffffffffffffffffffffffffffffffffffffffff16600260006101000a81548173ffffffffffffffffffffffffffffffffffffffff021916908373ffffffffffffffffffffffffffffffffffffffff1602179055506100ee565b60405161010c806107a683390190565b6106a9806100fd6000396000f300608060405260043610610078576000357c0100000000000000000000000000000000000000000000000000000000900463ffffffff1680636b557a221461007d578063a9059cbb146100ed578063c9116b691461013a578063d0e30db014610165578063e3d670d714610183578063f3fef3a3146101da575b600080fd5b34801561008957600080fd5b506100eb6004803603810190808035906020019082018035906020019080806020026020016040519081016040528093929190818152602001838360200280828437820191505050505050919291929080359060200190929190505050610227565b005b3480156100f957600080fd5b50610138600480360381019080803573ffffffffffffffffffffffffffffffffffffffff16906020019092919080359060200190929190505050610349565b005b34801561014657600080fd5b5061014f6104a9565b6040518082815260200191505060405180910390f35b61016d6104ef565b6040518082815260200191505060405180910390f35b34801561018f57600080fd5b506101c4600480360381019080803573ffffffffffffffffffffffffffffffffffffffff169060200190929190505050610581565b6040518082815260200191505060405180910390f35b3480156101e657600080fd5b50610225600480360381019080803573ffffffffffffffffffffffffffffffffffffffff16906020019092919080359060200190929190505050610599565b005b600080835191508183026000803373ffffffffffffffffffffffffffffffffffffffff1673ffffffffffffffffffffffffffffffffffffffff168152602001908152602001600020541015151561027d57600080fd5b8183026000803373ffffffffffffffffffffffffffffffffffffffff1673ffffffffffffffffffffffffffffffffffffffff16815260200190815260200160002060008282540392505081905550600090505b818110156103435783818151811015156102e657fe5b9060200190602002015173ffffffffffffffffffffffffffffffffffffffff166108fc849081150290604051600060405180830381858888f19350505050158015610335573d6000803e3d6000fd5b5080806001019150506102d0565b50505050565b6000816000803373ffffffffffffffffffffffffffffffffffffffff1673ffffffffffffffffffffffffffffffffffffffff168152602001908152602001600020541015151561039857600080fd5b60405180807f7472616e73666572286164647265737329000000000000000000000000000000815250601101905060405180910390209050600260009054906101000a900473ffffffffffffffffffffffffffffffffffffffff1673ffffffffffffffffffffffffffffffffffffffff1682827c0100000000000000000000000000000000000000000000000000000000900490856040518363ffffffff167c0100000000000000000000000000000000000000000000000000000000028152600401808273ffffffffffffffffffffffffffffffffffffffff1673ffffffffffffffffffffffffffffffffffffffff16815260200191505060006040518083038185885af1935050505050505050565b60008060003373ffffffffffffffffffffffffffffffffffffffff1673ffffffffffffffffffffffffffffffffffffffff16815260200190815260200160002054905090565b6000346000803373ffffffffffffffffffffffffffffffffffffffff1673ffffffffffffffffffffffffffffffffffffffff168152602001908152602001600020600082825401925050819055506000803373ffffffffffffffffffffffffffffffffffffffff1673ffffffffffffffffffffffffffffffffffffffff16815260200190815260200160002054905090565b60006020528060005260406000206000915090505481565b806000803373ffffffffffffffffffffffffffffffffffffffff1673ffffffffffffffffffffffffffffffffffffffff16815260200190815260200160002054101515156105e657600080fd5b806000803373ffffffffffffffffffffffffffffffffffffffff1673ffffffffffffffffffffffffffffffffffffffff168152602001908152602001600020600082825403925050819055508173ffffffffffffffffffffffffffffffffffffffff166108fc829081150290604051600060405180830381858888f19350505050158015610678573d6000803e3d6000fd5b5050505600a165627a7a7230582073b86b0504a0668c11a4b9525431c2c1eb1f06ba1b37ab7b422840967732027c0029608060405234801561001057600080fd5b5060ed8061001f6000396000f300608060405260043610603f576000357c0100000000000000000000000000000000000000000000000000000000900463ffffffff1680631a695230146044575b600080fd5b6076600480360381019080803573ffffffffffffffffffffffffffffffffffffffff1690602001909291905050506078565b005b8073ffffffffffffffffffffffffffffffffffffffff166108fc349081150290604051600060405180830381858888f1935050505015801560bd573d6000803e3d6000fd5b50505600a165627a7a72305820e95f74106a3328ffadd8b0adb916d92497daab65998ee73cf40afff57dc4b29b0029",
  "source": "pragma solidity ^0.4.19;\n\nimport \"./Transfers2.sol\";\n\ncontract Transfers {\n\tmapping (address => uint) public balance;\n\tTransfers2 t;\n\taddress t_addr;\n\n\tconstructor() public {\n\t\tt = new Transfers2();\n\t\tt_addr = address(t);\n\t}\n\n\tfunction transfer(address _addr, uint _value) public {\n\t\trequire(balance[msg.sender] >= _value);\n\t\tbytes4 sig = bytes4(keccak256(\"transfer(address)\"));\n\t\tt_addr.call.value(_value)(sig, _addr);\t\t\n\t}\n\n\tfunction myBalance() public returns (uint) {\n\t\treturn balance[msg.sender];\n\t}\n\n\tfunction deposit() public payable returns (uint) {\n\t\tbalance[msg.sender] += msg.value;\n\t\treturn balance[msg.sender];\n\t}\n\n\tfunction withdraw(address _addr, uint _value) public {\n\t\trequire(balance[msg.sender] >= _value);\n\t\tbalance[msg.sender] -= _value;\n\t\t_addr.transfer(_value);\n\t}\n\n\tfunction withdrawMulti(address[] _addrs, uint _value) public {\n\t\tuint l = _addrs.length;\n\t\trequire(balance[msg.sender] >= _value * l);\n\t\tbalance[msg.sender] -= _value * l;\n\t\tfor (uint i = 0; i < l; i++){\n\t\t\t_addrs[i].transfer(_value);\n\t\t}\n\t}\n}",
  "sourcePath": "/Users/gregmarkou/Jobs/Jobs/ChainSafe/shyftNetwork/shyft_go-ethereum/shyft-cli/web3/transfer-through-master/contracts/Transfers.sol",
  "compiler": {
    "name": "solc",
    "version": "0.4.24+commit.e67f0147.Emscripten.clang"
  },
  "schemaVersion": "2.0.0",
  "updatedAt": "2018-06-08T15:58:27.902Z"
}