{"abi":[{"type":"function","name":"get","inputs":[{"name":"value","type":"uint256","internalType":"uint256"}],"outputs":[],"stateMutability":"nonpayable"},{"type":"event","name":"SomeEvent","inputs":[{"name":"value","type":"uint256","indexed":false,"internalType":"uint256"}],"anonymous":false}],"bytecode":{"object":"0x608060405234801561001057600080fd5b5060c28061001f6000396000f3fe6080604052348015600f57600080fd5b506004361060285760003560e01c80639507d39a14602d575b600080fd5b603c60383660046074565b603e565b005b6040518181527f379340f64b65a8890c7ea4f6d86d2359beaf41080f36a7ea64b78a2c06eee3f09060200160405180910390a150565b600060208284031215608557600080fd5b503591905056fea26469706673582212203cfea3df666a7e41bff65aa69c07e26051460f3288035e35ea606ab0614229b564736f6c63430008170033","linkReferences":{}},"methodIdentifiers":{"get(uint256)":"9507d39a"},"id":0}